{
  "_format": "hh-sol-artifact-1",
  "contractName": "StoreDocument",
  "sourceName": "contracts/StoreDocument.sol",
  "abi": [
    {
      "inputs": [],
      "name": "Users",
      "outputs": [
        {
          "components": [
            {
              "internalType": "uint256",
              "name": "id",
              "type": "uint256"
            },
            {
              "internalType": "string",
              "name": "name",
              "type": "string"
            },
            {
              "internalType": "string",
              "name": "email",
              "type": "string"
            }
          ],
          "internalType": "struct StoreDocument.userDetails[]",
          "name": "",
          "type": "tuple[]"
        }
      ],
      "stateMutability": "view",
      "type": "function"
    },
    {
      "inputs": [
        {
          "internalType": "string",
          "name": "adminName",
          "type": "string"
        },
        {
          "internalType": "address",
          "name": "_adminWalletAddress",
          "type": "address"
        }
      ],
      "name": "addAdmin",
      "outputs": [],
      "stateMutability": "nonpayable",
      "type": "function"
    },
    {
      "inputs": [
        {
          "internalType": "string",
          "name": "_document_link",
          "type": "string"
        }
      ],
      "name": "addShareSheet",
      "outputs": [],
      "stateMutability": "nonpayable",
      "type": "function"
    },
    {
      "inputs": [
        {
          "internalType": "string",
          "name": "_name",
          "type": "string"
        },
        {
          "internalType": "string",
          "name": "_email",
          "type": "string"
        }
      ],
      "name": "addUser",
      "outputs": [],
      "stateMutability": "nonpayable",
      "type": "function"
    },
    {
      "inputs": [],
      "name": "admins",
      "outputs": [
        {
          "components": [
            {
              "internalType": "uint256",
              "name": "id",
              "type": "uint256"
            },
            {
              "internalType": "string",
              "name": "name",
              "type": "string"
            },
            {
              "internalType": "address",
              "name": "adminWalletAddress",
              "type": "address"
            }
          ],
          "internalType": "struct StoreDocument.adminDetails[]",
          "name": "",
          "type": "tuple[]"
        }
      ],
      "stateMutability": "view",
      "type": "function"
    },
    {
      "inputs": [],
      "name": "sharedsheetUsers",
      "outputs": [
        {
          "components": [
            {
              "internalType": "uint256",
              "name": "id",
              "type": "uint256"
            },
            {
              "internalType": "string",
              "name": "document_link",
              "type": "string"
            }
          ],
          "internalType": "struct StoreDocument.documents[]",
          "name": "",
          "type": "tuple[]"
        }
      ],
      "stateMutability": "view",
      "type": "function"
    }
  ],
  "bytecode": "0x608060405233600360006101000a81548173ffffffffffffffffffffffffffffffffffffffff021916908373ffffffffffffffffffffffffffffffffffffffff16021790555034801561005157600080fd5b506117bf806100616000396000f3fe608060405234801561001057600080fd5b50600436106100625760003560e01c8063079eaf34146100675780630831b05f146100835780630cce8b931461009f5780634b6ede29146100bb578063a5de3619146100d9578063d45f87a8146100f7575b600080fd5b610081600480360381019061007c9190610da2565b610115565b005b61009d60048036038101906100989190610e78565b610195565b005b6100b960048036038101906100b49190610ed4565b6103b9565b005b6100c3610587565b6040516100d091906110ce565b60405180910390f35b6100e16107da565b6040516100ee9190611211565b60405180910390f35b6100ff6109f1565b60405161010c9190611332565b60405180910390f35b61011f6000610bb2565b600061012b6000610bc8565b9050826005600083815260200190815260200160002060010190816101509190611560565b508060056000838152602001908152602001600020600001819055508160056000838152602001908152602001600020600201908161018f9190611560565b50505050565b60006101a16001610bc8565b9050600080600090505b8281101561023f573373ffffffffffffffffffffffffffffffffffffffff16600460006001846101db9190611661565b815260200190815260200160002060020160009054906101000a900473ffffffffffffffffffffffffffffffffffffffff1673ffffffffffffffffffffffffffffffffffffffff160361022c573391505b808061023790611695565b9150506101ab565b503373ffffffffffffffffffffffffffffffffffffffff168173ffffffffffffffffffffffffffffffffffffffff1614806102c757503373ffffffffffffffffffffffffffffffffffffffff16600360009054906101000a900473ffffffffffffffffffffffffffffffffffffffff1673ffffffffffffffffffffffffffffffffffffffff16145b610306576040517f08c379a00000000000000000000000000000000000000000000000000000000081526004016102fd9061173a565b60405180910390fd5b6103106001610bb2565b600061031c6001610bc8565b90508060046000838152602001908152602001600020600001819055508460046000838152602001908152602001600020600101908161035c9190611560565b50836004600083815260200190815260200160002060020160006101000a81548173ffffffffffffffffffffffffffffffffffffffff021916908373ffffffffffffffffffffffffffffffffffffffff1602179055505050505050565b60006103c56001610bc8565b9050600080600090505b82811015610463573373ffffffffffffffffffffffffffffffffffffffff16600460006001846103ff9190611661565b815260200190815260200160002060020160009054906101000a900473ffffffffffffffffffffffffffffffffffffffff1673ffffffffffffffffffffffffffffffffffffffff1603610450573391505b808061045b90611695565b9150506103cf565b503373ffffffffffffffffffffffffffffffffffffffff168173ffffffffffffffffffffffffffffffffffffffff1614806104eb57503373ffffffffffffffffffffffffffffffffffffffff16600360009054906101000a900473ffffffffffffffffffffffffffffffffffffffff1673ffffffffffffffffffffffffffffffffffffffff16145b61052a576040517f08c379a00000000000000000000000000000000000000000000000000000000081526004016105219061173a565b60405180910390fd5b6105346002610bb2565b60006105406002610bc8565b9050806006600083815260200190815260200160002060000181905550836006600083815260200190815260200160002060010190816105809190611560565b5050505050565b606060006105956000610bc8565b905060008060005b838110156105c7576001836105b29190611661565b925080806105bf90611695565b91505061059d565b5060008267ffffffffffffffff8111156105e4576105e3610c77565b5b60405190808252806020026020018201604052801561061d57816020015b61060a610bd6565b8152602001906001900390816106025790505b50905060005b848110156107cf57600060018261063a9190611661565b90506000600560008381526020019081526020016000209050806040518060600160405290816000820154815260200160018201805461067990611383565b80601f01602080910402602001604051908101604052809291908181526020018280546106a590611383565b80156106f25780601f106106c7576101008083540402835291602001916106f2565b820191906000526020600020905b8154815290600101906020018083116106d557829003601f168201915b5050505050815260200160028201805461070b90611383565b80601f016020809104026020016040519081016040528092919081815260200182805461073790611383565b80156107845780601f1061075957610100808354040283529160200191610784565b820191906000526020600020905b81548152906001019060200180831161076757829003601f168201915b5050505050815250508486815181106107a05761079f61175a565b5b60200260200101819052506001856107b89190611661565b9450505080806107c790611695565b915050610623565b508094505050505090565b606060006107e86001610bc8565b905060008060005b8381101561081a576001836108059190611661565b9250808061081290611695565b9150506107f0565b5060008267ffffffffffffffff81111561083757610836610c77565b5b60405190808252806020026020018201604052801561087057816020015b61085d610bf7565b8152602001906001900390816108555790505b50905060005b848110156109e657600060018261088d9190611661565b9050600060046000838152602001908152602001600020905080604051806060016040529081600082015481526020016001820180546108cc90611383565b80601f01602080910402602001604051908101604052809291908181526020018280546108f890611383565b80156109455780601f1061091a57610100808354040283529160200191610945565b820191906000526020600020905b81548152906001019060200180831161092857829003601f168201915b505050505081526020016002820160009054906101000a900473ffffffffffffffffffffffffffffffffffffffff1673ffffffffffffffffffffffffffffffffffffffff1673ffffffffffffffffffffffffffffffffffffffff16815250508486815181106109b7576109b661175a565b5b60200260200101819052506001856109cf9190611661565b9450505080806109de90611695565b915050610876565b508094505050505090565b606060006109ff6000610bc8565b905060008060005b83811015610a3157600183610a1c9190611661565b92508080610a2990611695565b915050610a07565b5060008267ffffffffffffffff811115610a4e57610a4d610c77565b5b604051908082528060200260200182016040528015610a8757816020015b610a74610c2e565b815260200190600190039081610a6c5790505b50905060005b84811015610ba7576000600182610aa49190611661565b905060006006600083815260200190815260200160002090508060405180604001604052908160008201548152602001600182018054610ae390611383565b80601f0160208091040260200160405190810160405280929190818152602001828054610b0f90611383565b8015610b5c5780601f10610b3157610100808354040283529160200191610b5c565b820191906000526020600020905b815481529060010190602001808311610b3f57829003601f168201915b505050505081525050848681518110610b7857610b7761175a565b5b6020026020010181905250600185610b909190611661565b945050508080610b9f90611695565b915050610a8d565b508094505050505090565b6001816000016000828254019250508190555050565b600081600001549050919050565b60405180606001604052806000815260200160608152602001606081525090565b60405180606001604052806000815260200160608152602001600073ffffffffffffffffffffffffffffffffffffffff1681525090565b604051806040016040528060008152602001606081525090565b6000604051905090565b600080fd5b600080fd5b600080fd5b600080fd5b6000601f19601f8301169050919050565b7f4e487b7100000000000000000000000000000000000000000000000000000000600052604160045260246000fd5b610caf82610c66565b810181811067ffffffffffffffff82111715610cce57610ccd610c77565b5b80604052505050565b6000610ce1610c48565b9050610ced8282610ca6565b919050565b600067ffffffffffffffff821115610d0d57610d0c610c77565b5b610d1682610c66565b9050602081019050919050565b82818337600083830152505050565b6000610d45610d4084610cf2565b610cd7565b905082815260208101848484011115610d6157610d60610c61565b5b610d6c848285610d23565b509392505050565b600082601f830112610d8957610d88610c5c565b5b8135610d99848260208601610d32565b91505092915050565b60008060408385031215610db957610db8610c52565b5b600083013567ffffffffffffffff811115610dd757610dd6610c57565b5b610de385828601610d74565b925050602083013567ffffffffffffffff811115610e0457610e03610c57565b5b610e1085828601610d74565b9150509250929050565b600073ffffffffffffffffffffffffffffffffffffffff82169050919050565b6000610e4582610e1a565b9050919050565b610e5581610e3a565b8114610e6057600080fd5b50565b600081359050610e7281610e4c565b92915050565b60008060408385031215610e8f57610e8e610c52565b5b600083013567ffffffffffffffff811115610ead57610eac610c57565b5b610eb985828601610d74565b9250506020610eca85828601610e63565b9150509250929050565b600060208284031215610eea57610ee9610c52565b5b600082013567ffffffffffffffff811115610f0857610f07610c57565b5b610f1484828501610d74565b91505092915050565b600081519050919050565b600082825260208201905092915050565b6000819050602082019050919050565b6000819050919050565b610f5c81610f49565b82525050565b600081519050919050565b600082825260208201905092915050565b60005b83811015610f9c578082015181840152602081019050610f81565b60008484015250505050565b6000610fb382610f62565b610fbd8185610f6d565b9350610fcd818560208601610f7e565b610fd681610c66565b840191505092915050565b6000606083016000830151610ff96000860182610f53565b50602083015184820360208601526110118282610fa8565b9150506040830151848203604086015261102b8282610fa8565b9150508091505092915050565b60006110448383610fe1565b905092915050565b6000602082019050919050565b600061106482610f1d565b61106e8185610f28565b93508360208202850161108085610f39565b8060005b858110156110bc578484038952815161109d8582611038565b94506110a88361104c565b925060208a01995050600181019050611084565b50829750879550505050505092915050565b600060208201905081810360008301526110e88184611059565b905092915050565b600081519050919050565b600082825260208201905092915050565b6000819050602082019050919050565b61112581610e3a565b82525050565b60006060830160008301516111436000860182610f53565b506020830151848203602086015261115b8282610fa8565b9150506040830151611170604086018261111c565b508091505092915050565b6000611187838361112b565b905092915050565b6000602082019050919050565b60006111a7826110f0565b6111b181856110fb565b9350836020820285016111c38561110c565b8060005b858110156111ff57848403895281516111e0858261117b565b94506111eb8361118f565b925060208a019950506001810190506111c7565b50829750879550505050505092915050565b6000602082019050818103600083015261122b818461119c565b905092915050565b600081519050919050565b600082825260208201905092915050565b6000819050602082019050919050565b60006040830160008301516112776000860182610f53565b506020830151848203602086015261128f8282610fa8565b9150508091505092915050565b60006112a8838361125f565b905092915050565b6000602082019050919050565b60006112c882611233565b6112d2818561123e565b9350836020820285016112e48561124f565b8060005b858110156113205784840389528151611301858261129c565b945061130c836112b0565b925060208a019950506001810190506112e8565b50829750879550505050505092915050565b6000602082019050818103600083015261134c81846112bd565b905092915050565b7f4e487b7100000000000000000000000000000000000000000000000000000000600052602260045260246000fd5b6000600282049050600182168061139b57607f821691505b6020821081036113ae576113ad611354565b5b50919050565b60008190508160005260206000209050919050565b60006020601f8301049050919050565b600082821b905092915050565b6000600883026114167fffffffffffffffffffffffffffffffffffffffffffffffffffffffffffffffff826113d9565b61142086836113d9565b95508019841693508086168417925050509392505050565b6000819050919050565b600061145d61145861145384610f49565b611438565b610f49565b9050919050565b6000819050919050565b61147783611442565b61148b61148382611464565b8484546113e6565b825550505050565b600090565b6114a0611493565b6114ab81848461146e565b505050565b5b818110156114cf576114c4600082611498565b6001810190506114b1565b5050565b601f821115611514576114e5816113b4565b6114ee846113c9565b810160208510156114fd578190505b611511611509856113c9565b8301826114b0565b50505b505050565b600082821c905092915050565b600061153760001984600802611519565b1980831691505092915050565b60006115508383611526565b9150826002028217905092915050565b61156982610f62565b67ffffffffffffffff81111561158257611581610c77565b5b61158c8254611383565b6115978282856114d3565b600060209050601f8311600181146115ca57600084156115b8578287015190505b6115c28582611544565b86555061162a565b601f1984166115d8866113b4565b60005b82811015611600578489015182556001820191506020850194506020810190506115db565b8683101561161d5784890151611619601f891682611526565b8355505b6001600288020188555050505b505050505050565b7f4e487b7100000000000000000000000000000000000000000000000000000000600052601160045260246000fd5b600061166c82610f49565b915061167783610f49565b925082820190508082111561168f5761168e611632565b5b92915050565b60006116a082610f49565b91507fffffffffffffffffffffffffffffffffffffffffffffffffffffffffffffffff82036116d2576116d1611632565b5b600182019050919050565b600082825260208201905092915050565b7f536f72727920796f7520617265206e6f742061646d696e000000000000000000600082015250565b60006117246017836116dd565b915061172f826116ee565b602082019050919050565b6000602082019050818103600083015261175381611717565b9050919050565b7f4e487b7100000000000000000000000000000000000000000000000000000000600052603260045260246000fdfea26469706673582212209fd3d21ae10482a8017ca0fb79ce8849be211dcb2208cf99b972512817862c5764736f6c63430008110033",
  "linkReferences": {},
  "deployedLinkReferences": {}
}